:020000040000fa
:020000040040ba
:10000000f0ff452089014000ad0a4000af0a4000e2
:10001000b30a4000b50a4000b70a400000000000e3
:10002000000000000000000000000000f309400094
:10003000b10a400000000000f3094000f30940004d
:10004000f3094000f3094000f3094000f3094000c0
:10005000f3094000f3094000f3094000bd074000e8
:10006000f309400000000000f3094000f3094000dc
:10007000f3094000f3094000a5064000f3094000e1
:10008000f3094000f3094000f3094000f309400080
:10009000f3094000f3094000f3094000f309400070
:1000a000f3094000f3094000f3094000f309400060
:1000b000f3094000f3094000f3094000f309400050
:1000c000f3094000f3094000f3094000f309400040
:1000d000f3094000f3094000f3094000f309400030
:1000e000f3094000f3094000f3094000f309400020
:1000f000f3094000f3094000f3094000f309400010
:10010000f3094000f3094000f3094000f3094000ff
:10011000f3094000000000000000000000000000a3
:10012000f3094000f309400065074000f30940006f
:10013000f3094000f309400000000000f30940000b
:10014000f3094000f3094000f3094000f3094000bf
:10015000f3094000f3094000f3094000f3094000af
:08016000f3094000f30940001f
:020000040000fa
:020000040040ba
:10016800f8b500bff8bc08bc9e467047810840003f
:10017800f8b500bff8bc08bc9e4670475d08400053
:020000040000fa
:020000040040ba
:1001880008b5494b9847494b9847eff3108172b629
:10019800474ad2f8883043f47003c2f88830bff376
:1001a8004f8fbff36f8f01b962b6424b424a5a6014
:1001b8009a6812f0010ffbd03e4bdb6813f4c07f46
:1001c80013d03e4b0c221a603a4b3d4a5a609a684b
:1001d80012f0010ffbd0374b3a4a5a609a6812f076
:1001e800010ffbd0384b394a1a60bff34f8fbff36a
:1001f8006f8f2f4cd4f8903223f00103c4f890325b
:10020800d4f8943223f00103c4f89432bff34f8f2b
:10021800bff36f8f00f07afb2d4b23f07f03a360b1
:100228002c4b9847bff34f8fbff36f8f0022c4f852
:100238005022bff34f8fbff36f8f636943f40033ce
:100248006361bff34f8fbff36f8fc4f88420bff390
:100258004f8fd4f88030c3f3c906c3f34e33590126
:1002680043f6e075204601ea0504334644ea837202
:10027800c0f86022013bb3f1ff3ff7d1203911f1fb
:10028800200ff0d1bff34f8f094a536943f48033ed
:100298005361bff34f8fbff36f8f0f4b98470f4bcf
:1002a800984700f0c9fbfee7b90a4000b90a4000c8
:1002b80000ed00e0000c0e400d00005ae000402068
:1002c8000c08005a0c07005a00180e40010000a53f
:1002d8000000400009074000b90a4000b90a400080
:020000040000fa
:020000040040ba
:1002e8002e4b0022c3f81421d3f8141141f0100149
:1002f800c3f814112a494ff400134b606ff400132c
:100308000b604ff0ff334b650b66c1f89030c1f8b6
:10031800a0300a614b618a63c1f8182101f50071a8
:1003280010200867486748606ff0100008604b6548
:100338000b66c1f89030c1f8a0300a614b618a633e
:10034800c1f8182101f500710b604b650b66c1f807
:100358009030c1f8a0300a614b618a63c1f8182156
:1003680001f500710b604b650b66c1f89030c1f860
:10037800a0300a614b618a63c1f8182101f5007148
:100388000b604b650b66c1f89030c1f8a0300a616c
:100398004b618a63c1f81821704700bf008008408c
:0403a800000e0e40f5
:020000040000fa
:020000040040ba
:1003ac00002830d010b40446194b1b7d002b2cd1e7
:1003bc00174b1860596000229a6001221a75586810
:1003cc009b68144a526912f0020f13d0984211d94b
:1003dc0010494a6812f4003f14bf34f81320e25c51
:1003ec00c2f30802ca6101334a6912f0020f01d04c
:1003fc009842eed8064a9360064b02229a6001207e
:10040c005df8044b7047002070470020f8e700bff0
:08041c00500040200080024066
:020000040000fa
:020000040040ba
:1004240038b51a4b1c681d681b7d002b2cd0174b4c
:1004340058689b68164a526912f0020f13d098420a
:1004440011d913494a6812f4003f14bf35f8132038
:10045400e25cc2f30802ca6101334a6912f0020f76
:1004640001d09842eed8094a9360936883420bd333
:10047400134600221a75064a0221d160db681bb1bb
:10048400024b1869db68984738bd00bf5000402014
:0404940000800240a2
:020000040000fa
:020000040040ba
:10049800184b194a9a629a6e12f0020ffbd0154a4d
:1004a800136b23f07003136313469a6e12f0080f50
:1004b800fbd0104a136b23f4407343f48073136327
:1004c80013469a6e12f0080ffbd00a4a136b23f0fa
:1004d800030343f00203136313469a6e12f0080fe6
:1004e800fbd0044b054a1a614ff08062c3f8002123
:1004f800704700bf00060e40013f1820805c0300d3
:020000040000fa
:020000040040ba
:10050800164bd96821f4e0610904090c144a0a431e
:10051800da60bff35f8f62b6124ae02182f80713f0
:100528008020106082f80e134ff48040106082f82b
:100538003a134ff0806151605a6a42f480225a623d
:100548005a6942f010025a615a6a42f400325a62f9
:100558005a6a42f480325a62704700bf00ed00e0e8
:080568000000fa0500e100e0cb
:020000040000fa
:020000040040ba
:1005700038b5174b1b7d4bb3154b5c689b68154a10
:10058000526912f0020f0fd09c420dd9104d114943
:100590002a68c869d25c0243ca6101334a6912f011
:1005a000020f01d09c42f3d8094a93609368a3429a
:1005b0000cd3134600221a75064a4ff40071d1601d
:1005c000db681bb1024b1869db68984738bd00bf78
:0805d0008400402000080e40e9
:020000040000fa
:020000040040ba
:1005d80070b5174b9d699e6993f82c303bb3144b4b
:1005e800dc691b6a13494a6912f0010f0dd09c425d
:1005f8000bd98a69c2f30802486810f4003f14bf97
:1006080026f81320ea540133ede7094a1362136a06
:10061800a3420cd31346002283f82c20054ae1217b
:10062800d1605b6a1bb1024b986a5b6a984770bde0
:08063800500040200080024048
:020000040000fa
:020000040040ba
:1006400038b5164b93f82c303bb3144bdc691b6a5e
:10065000134a526912f0010f0dd09c420bd9104a77
:100660000e4d9069a969c8540133516911f0010f09
:1006700001d09c42f5d8094a1362136aa3420cd3f5
:100680001346002283f82c20054ae121d1605b6ae1
:100690001bb1024b986a5b6a984738bd84004020c2
:0406a00000080e4000
:020000040000fa
:020000040040ba
:1006a40010b5164b5b6913f0e0030fd1134b5b6974
:1006b40013f0010f1bd1114b5b6913f0020f04d02f
:1006c4000e4b1b6913f0020f14d110bd0c4c2363a5
:1006d40000f052f9094be122da60002384f82c304f
:1006e400636a002be2d0a06a636a9847dee7fff7eb
:1006f40071ffe0e7fff794fee7e700bf00800240e8
:040704005000402041
:020000040000fa
:020000040040ba
:100708000e4a38b5002313600d4a0e4c13600e4a8a
:100718000e4d13600e4a13600e4a13600e4a536260
:1007280013610123936000f0c5f900f0c3f9ac42ee
:1007380000d338bd54f8043b9847f8e7e800402058
:100748000c0040207401400008004020780140005f
:0c07580000004020040040201000402061
:020000040000fa
:020000040040ba
:1007640008b5134b1a78996892b1124b5b6913f070
:10077400010f0dd00f4bdb6d13f0700f09d00c4b34
:1007840000221a735b681bb1094b5b68022098470f
:1007940008bd13f0010ffbd0054b00221a735b68f0
:1007a400002bf5d0024b5b6801209847f0e700bfaf
:0807b400d00040200080074046
:020000040000fa
:020000040040ba
:1007bc0008b5114b5b6913f0e00f0cd00e4be12226
:1007cc00da600e4b002283f82c205b6a1bb10b4bba
:1007dc00986a5b6a9847084b5b6913f0010f05d167
:1007ec00054b5b6913f0020f03d108bdfff722ff25
:1007fc00f6e7fff7b7fef8e700080e40840040204c
:020000040000fa
:020000040040ba
:10080c00b40040201c0000000000000084004020c8
:10081c0030000000000000005000402034000000b8
:10082c0000000000d0004020180000000000000074
:10083c00000040205000000000000000e8004020b4
:10084c000400000000000000000000000000000098
:020000040000fa
:020000040040ba
:10085c0010b5054c227832b9044b13b10448aff3f0
:10086c0000800123237010bdb40040200000000064
:10087c000000000008b5034b1bb103490348aff35c
:10088c00008008bd00000000b800402000000000ff
:020000040000fa
:020000040040ba
:10089c000c4b4ff486721a6050221a604ff40062af
:1008ac005a6051221a62084b00229a61da611a626c
:1008bc0083f82c205a621a605a609a601a75da60b2
:0c08cc00704700bf00080e408400402070
:020000040000fa
:020000040040ba
:1008d8000c4b4ff486721a6050221a604ff40c6267
:1008e8005a6051221a62084b00229a61da611a6230
:1008f80083f82c205a621a605a609a601a75da6076
:0c0908001a63704700800240500040203d
:020000040000fa
:020000040040ba
:1009140070b50b480b4d4ff6ff76016821b943685b
:1009240013b900f0c8f870bd83684268334000f121
:100934000c0455f823302046984704eb8000ece77c
:080944000c084000540a4000b9
:020000040000fa
:020000040040ba
:10094c0008b500f09df8fff7a1fdfff7c7fc00f01c
:10095c0025f8fff79dff4ff40043044a5360b03a6b
:10096c005360fff7b3fffff7c9fd08bd00190e4038
:020000040000fa
:020000040040ba
:10097c00094b5b6913f0e00f0dd0074b4ff48072fd
:10098c001a605b6913f0010f05d0034b9a695a6921
:0c099c0012f0010ffad1704700800240f9
:020000040000fa
:020000040040ba
:1009a800074b00221a705a609a601a73054a064962
:1009b8009167712111650121d1601970704700bfdd
:0c09c800d0004020008007400120040afd
:020000040000fa
:020000040040ba
:1009d40010b50023934206d113f0030018bf012081
:0e09e40000eb930010bdc45ccc540133f2e76d
:020000040000fa
:020000040040ba
:0209f200fee71e
:020000040000fa
:020000040040ba
:1009f4000a4053414d453730204b53454d207374c5
:0c0a04006172742e2e2e0d0a000000bf3f
:020000040000fa
:020000040040ba
:100a100038b504460d4600f041f80028fbd12946c0
:080a20002046fff7c3fc38bdbe
:020000040000fa
:020000040040ba
:100a280003783bb1034600bf13f8012f002afbd11e
:080a3800181a704718467047b8
:020000040000fa
:020000040040ba
:100a400008b50020fff782ff014800f00df8fee72f
:040a5000f409400065
:020000040000fa
:020000040040ba
:100a54007b0a4000d5094000a90a4000a90a4000c9
:040a6400a90a40009b
:020000040000fa
:020000040040ba
:100a680010b50446fff7dcff01462046fff7ccff30
:020a780010bdaf
:020000040000fa
:020000040040ba
:100a7a000a440023914201d10020704701f8013b4a
:020a8a00f8e78b
:020000040000fa
:020000040040ba
:100a8c00014b024a1a607047000c0e40000600042d
:020000040000fa
:020000040040ba
:0c0a9c00014b187d704700bf5000402047
:020000040000fa
:020000040040ba
:040aa8000020704773
:020000040000fa
:020000040040ba
:020aac00fee763
:020000040000fa
:020000040040ba
:020aae00fee761
:020000040000fa
:020000040040ba
:020ab000fee75f
:020000040000fa
:020000040040ba
:020ab200fee75d
:020000040000fa
:020000040040ba
:020ab400fee75b
:020000040000fa
:020000040040ba
:020ab600fee759
:020000040000fa
:020000040040ba
:020ab800704785
:020000040000fa
:020000040040ba
:020aba00704783
:020000040000fa
:020000040040ba
:020abc00704781
:020000040000fa
:02000004d0002a
:0400000002000000fa
:00000001FF
